{
  "contractName": "LocationFactory",
  "abi": [
    {
      "inputs": [
        {
          "internalType": "address",
          "name": "_schd",
          "type": "address"
        }
      ],
      "stateMutability": "nonpayable",
      "type": "constructor"
    },
    {
      "inputs": [
        {
          "internalType": "string",
          "name": "",
          "type": "string"
        }
      ],
      "name": "locations",
      "outputs": [
        {
          "internalType": "contract Location",
          "name": "",
          "type": "address"
        }
      ],
      "stateMutability": "view",
      "type": "function",
      "constant": true
    },
    {
      "inputs": [],
      "name": "schdAddress",
      "outputs": [
        {
          "internalType": "address",
          "name": "",
          "type": "address"
        }
      ],
      "stateMutability": "view",
      "type": "function",
      "constant": true
    },
    {
      "inputs": [
        {
          "internalType": "string",
          "name": "name",
          "type": "string"
        },
        {
          "internalType": "string",
          "name": "locationId",
          "type": "string"
        }
      ],
      "name": "createLocation",
      "outputs": [],
      "stateMutability": "nonpayable",
      "type": "function"
    }
  ],
  "bytecode": "0x608060405234801561001057600080fd5b506040516111503803806111508339818101604052602081101561003357600080fd5b8101908080519060200190929190505050806000806101000a81548173ffffffffffffffffffffffffffffffffffffffff021916908373ffffffffffffffffffffffffffffffffffffffff160217905550506110bc806100946000396000f3fe608060405234801561001057600080fd5b50600436106100415760003560e01c80631516651e146100465780633cb64d561461007a57806383cc56e11461015f575b600080fd5b61004e6102b1565b604051808273ffffffffffffffffffffffffffffffffffffffff16815260200191505060405180910390f35b6101336004803603602081101561009057600080fd5b81019080803590602001906401000000008111156100ad57600080fd5b8201836020820111156100bf57600080fd5b803590602001918460018302840111640100000000831117156100e157600080fd5b91908080601f016020809104026020016040519081016040528093929190818152602001838380828437600081840152601f19601f8201169050808301925050505050505091929192905050506102d5565b604051808273ffffffffffffffffffffffffffffffffffffffff16815260200191505060405180910390f35b6102af6004803603604081101561017557600080fd5b810190808035906020019064010000000081111561019257600080fd5b8201836020820111156101a457600080fd5b803590602001918460018302840111640100000000831117156101c657600080fd5b91908080601f016020809104026020016040519081016040528093929190818152602001838380828437600081840152601f19601f8201169050808301925050505050505091929192908035906020019064010000000081111561022957600080fd5b82018360208201111561023b57600080fd5b8035906020019184600183028401116401000000008311171561025d57600080fd5b91908080601f016020809104026020016040519081016040528093929190818152602001838380828437600081840152601f19601f82011690508083019250505050505050919291929050505061031e565b005b60008054906101000a900473ffffffffffffffffffffffffffffffffffffffff1681565b6001818051602081018201805184825260208301602085012081835280955050505050506000915054906101000a900473ffffffffffffffffffffffffffffffffffffffff1681565b6000828260008054906101000a900473ffffffffffffffffffffffffffffffffffffffff1660405161034f90610513565b8080602001806020018473ffffffffffffffffffffffffffffffffffffffff168152602001838103835286818151815260200191508051906020019080838360005b838110156103ac578082015181840152602081019050610391565b50505050905090810190601f1680156103d95780820380516001836020036101000a031916815260200191505b50838103825285818151815260200191508051906020019080838360005b838110156104125780820151818401526020810190506103f7565b50505050905090810190601f16801561043f5780820380516001836020036101000a031916815260200191505b5095505050505050604051809103906000f080158015610463573d6000803e3d6000fd5b509050806001836040518082805190602001908083835b6020831061049d578051825260208201915060208101905060208303925061047a565b6001836020036101000a038019825116818451168082178552505050505050905001915050908152602001604051809103902060006101000a81548173ffffffffffffffffffffffffffffffffffffffff021916908373ffffffffffffffffffffffffffffffffffffffff160217905550505050565b610b66806105218339019056fe608060405234801561001057600080fd5b50604051610b66380380610b668339818101604052606081101561003357600080fd5b810190808051604051939291908464010000000082111561005357600080fd5b8382019150602082018581111561006957600080fd5b825186600182028301116401000000008211171561008657600080fd5b8083526020830192505050908051906020019080838360005b838110156100ba57808201518184015260208101905061009f565b50505050905090810190601f1680156100e75780820380516001836020036101000a031916815260200191505b506040526020018051604051939291908464010000000082111561010a57600080fd5b8382019150602082018581111561012057600080fd5b825186600182028301116401000000008211171561013d57600080fd5b8083526020830192505050908051906020019080838360005b83811015610171578082015181840152602081019050610156565b50505050905090810190601f16801561019e5780820380516001836020036101000a031916815260200191505b506040526020018051906020019092919050505082600190805190602001906101c8929190610238565b5081600290805190602001906101df929190610238565b5060006004819055506000600381905550806000806101000a81548173ffffffffffffffffffffffffffffffffffffffff021916908373ffffffffffffffffffffffffffffffffffffffff1602179055505050506102d5565b828054600181600116156101000203166002900490600052602060002090601f016020900481019282601f1061027957805160ff19168380011785556102a7565b828001600101855582156102a7579182015b828111156102a657825182559160200191906001019061028b565b5b5090506102b491906102b8565b5090565b5b808211156102d15760008160009055506001016102b9565b5090565b610882806102e46000396000f3fe6080604052600436106100555760003560e01c806306fdde031461005a57806328c5be3c146100ea57806361521553146101b2578063e83ddcea146101dd578063e8aadc3f146102b8578063eff5924f14610348575b600080fd5b34801561006657600080fd5b5061006f610373565b6040518080602001828103825283818151815260200191508051906020019080838360005b838110156100af578082015181840152602081019050610094565b50505050905090810190601f1680156100dc5780820380516001836020036101000a031916815260200191505b509250505060405180910390f35b6101b06004803603604081101561010057600080fd5b810190808035906020019064010000000081111561011d57600080fd5b82018360208201111561012f57600080fd5b8035906020019184600183028401116401000000008311171561015157600080fd5b91908080601f016020809104026020016040519081016040528093929190818152602001838380828437600081840152601f19601f820116905080830192505050505050509192919290803560ff169060200190929190505050610411565b005b3480156101be57600080fd5b506101c7610609565b6040518082815260200191505060405180910390f35b3480156101e957600080fd5b506102166004803603602081101561020057600080fd5b810190808035906020019092919050505061060f565b60405180806020018460ff1681526020018373ffffffffffffffffffffffffffffffffffffffff168152602001828103825285818151815260200191508051906020019080838360005b8381101561027b578082015181840152602081019050610260565b50505050905090810190601f1680156102a85780820380516001836020036101000a031916815260200191505b5094505050505060405180910390f35b3480156102c457600080fd5b506102cd61070b565b6040518080602001828103825283818151815260200191508051906020019080838360005b8381101561030d5780820151818401526020810190506102f2565b50505050905090810190601f16801561033a5780820380516001836020036101000a031916815260200191505b509250505060405180910390f35b34801561035457600080fd5b5061035d6107a9565b6040518082815260200191505060405180910390f35b60018054600181600116156101000203166002900480601f0160208091040260200160405190810160405280929190818152602001828054600181600116156101000203166002900480156104095780601f106103de57610100808354040283529160200191610409565b820191906000526020600020905b8154815290600101906020018083116103ec57829003601f168201915b505050505081565b60008160ff16101561042257600080fd5b60058160ff16111561043357600080fd5b600560405180606001604052808481526020018360ff1681526020013373ffffffffffffffffffffffffffffffffffffffff16815250908060018154018082558091505060019003906000526020600020906002020160009091909190915060008201518160000190805190602001906104ae9291906107af565b5060208201518160010160006101000a81548160ff021916908360ff16021790555060408201518160010160016101000a81548173ffffffffffffffffffffffffffffffffffffffff021916908373ffffffffffffffffffffffffffffffffffffffff16021790555050508060ff166003540160038190555060046000815480929190600101919050555060008060009054906101000a900473ffffffffffffffffffffffffffffffffffffffff1690508073ffffffffffffffffffffffffffffffffffffffff1663f5ab16cc336040518263ffffffff1660e01b8152600401808273ffffffffffffffffffffffffffffffffffffffff168152602001915050602060405180830381600087803b1580156105c857600080fd5b505af11580156105dc573d6000803e3d6000fd5b505050506040513d60208110156105f257600080fd5b810190808051906020019092919050505050505050565b60035481565b6005818154811061061c57fe5b9060005260206000209060020201600091509050806000018054600181600116156101000203166002900480601f0160208091040260200160405190810160405280929190818152602001828054600181600116156101000203166002900480156106c85780601f1061069d576101008083540402835291602001916106c8565b820191906000526020600020905b8154815290600101906020018083116106ab57829003601f168201915b5050505050908060010160009054906101000a900460ff16908060010160019054906101000a900473ffffffffffffffffffffffffffffffffffffffff16905083565b60028054600181600116156101000203166002900480601f0160208091040260200160405190810160405280929190818152602001828054600181600116156101000203166002900480156107a15780601f10610776576101008083540402835291602001916107a1565b820191906000526020600020905b81548152906001019060200180831161078457829003601f168201915b505050505081565b60045481565b828054600181600116156101000203166002900490600052602060002090601f016020900481019282601f106107f057805160ff191683800117855561081e565b8280016001018555821561081e579182015b8281111561081d578251825591602001919060010190610802565b5b50905061082b919061082f565b5090565b5b80821115610848576000816000905550600101610830565b509056fea2646970667358221220df184484acc8162cd56994b71b68f9093a404f37849276ccfa55d26a3630536664736f6c634300060c0033a2646970667358221220f86926f7d22cdbf903d4ae8537c06a439dd927921a80ce1a7affd44076742a4264736f6c634300060c0033",
  "immutableReferences": {},
  "source": "pragma solidity ^0.6.0;\n\nimport './Location.sol';\n\ncontract LocationFactory {\n    address public schdAddress;\n    mapping(string => Location) public locations;\n\n    constructor(address _schd) public {\n      schdAddress = _schd;\n    }\n\n    function createLocation(string memory name, string memory locationId) public {\n      Location l = new Location(name, locationId, schdAddress);\n      locations[locationId] = l;\n    }\n}\n",
  "sourcePath": "/Users/toddrasband/Podium/dapp-reviews/src/contracts/LocationFactory.sol",
  "compiler": {
    "name": "solc",
    "version": "0.6.12+commit.27d51765.Emscripten.clang"
  },
  "schemaVersion": "3.3.4",
  "updatedAt": "2021-04-29T23:29:27.097Z",
  "networkType": "ethereum",
  "devdoc": {
    "kind": "dev",
    "methods": {},
    "version": 1
  },
  "userdoc": {
    "kind": "user",
    "methods": {},
    "version": 1
  }
}